:100000000C94ED000C94AD050C9486050C94D4056D
:100010000C94D4050C94D4050C9415010C94150182
:100020000C9415010C9415010C9415010C941501F8
:100030000C9415010C9415010C9415010C941501E8
:100040000C943C050C9415010C940A050C94E404E2
:100050000C9415010C9415010C9415010C941501C8
:100060000C9415010C9415010000000024002700D9
:100070002A0000000008000201000003040700003D
:1000800000000000000041542B43504D533D2253CB
:100090004D222C22534D222C22534D220053494DE8
:1000A0003830304800093C2D2D2D2000092D2D2DF4
:1000B0003E200053494D434F4D5F53494D35333238
:1000C00030450053494D434F4D5F53494D35333211
:1000D00030410053494D38303020523133005349BC
:1000E0004D383038205231330053494D38303820A4
:1000F00052313400093C2D2D2D2000092D2D2D3E8F
:10010000200041542B435648553D30004154453062
:1001100000415445300041540041540041540054C2
:10012000696D656F75743A204E6F20726573706FDC
:100130006E736520746F2041542E2E2E206C6173D7
:100140007420646974636820617474656D70742EC2
:1001500000415400415400415400417474656D7075
:1001600074696E6720746F206F70656E20636F6DA9
:100170006D20776974682041547300093C2D2D2D42
:100180002000092D2D2D3E20004F4B00464F4E41A3
:1001900000464F4E416E65740000000000230026AB
:1001A00000290000000000250028002B00040404A2
:1001B0000404040404020202020202030303030310
:1001C00003010204081020408001020408102001ED
:1001D0000204081020004C069B0911241FBECFEF1B
:1001E000D8E0DEBFCDBF23E0A8E4B1E001C01D929E
:1001F000AB36B207E1F711E0A0E0B1E0EEE5F4E1E3
:1002000002C005900D92A834B107D9F710E0CCEEEA
:10021000D0E004C02197FE010E941C0ACB3ED1070A
:10022000C9F70E9430070C94220A0C940000FC01CC
:10023000538D448D252F30E0842F90E0821B930B4B
:10024000541710F0CF96089501970895FC01918DF1
:10025000828D981761F0A28DAE0FBF2FB11D5D96F4
:100260008C91928D9F5F9F73928F90E008958FEF96
:100270009FEF0895FC01918D828D981731F0828D4A
:10028000E80FF11D858D90E008958FEF9FEF0895A1
:10029000FC01918D228D892F90E0805C9F4F821B05
:1002A00091098F7399270895FC01A48DA80FB92F88
:1002B000B11DA35ABF4F2C91848D90E001968F738E
:1002C0009927848FA689B7892C93A089B1898C91AD
:1002D000837080648C93938D848D981306C00288FC
:1002E000F389E02D80818F7D80830895EF92FF92C6
:1002F0000F931F93CF93DF93EC0181E0888F9B8D49
:100300008C8D98131AC0E889F989808185FF15C002
:100310009FB7F894EE89FF896083E889F989808125
:100320008370806480839FBF81E090E0DF91CF91F4
:100330001F910F91FF90EF900895F62E0B8D10E016
:100340000F5F1F4F0F731127E02E8C8D8E110CC085
:100350000FB607FCFACFE889F989808185FFF5CFD0
:10036000CE010E945401F1CFEB8DEC0FFD2FF11D5A
:10037000E35AFF4FF0829FB7F8940B8FEA89FB890D
:1003800080818062CFCFCF93DF93EC01888D88236B
:10039000B9F0AA89BB89E889F9898C9185FD03C0E8
:1003A000808186FD0DC00FB607FCF7CF8C9185FFCD
:1003B000F2CF808185FFEDCFCE010E945401E9CFBD
:1003C000DF91CF91089585E991E00E94480121E0F5
:1003D000892B09F420E0822F089580E090E0892B9A
:1003E00029F00E94E30181110C9400000895EF921E
:1003F000FF920F931F93CF93DF938C017B01D0E08B
:10040000C0E0F701EC0FFD1F6491662361F0D80195
:10041000ED91FC910190F081E02DC8010995892BA7
:1004200011F02196EECFCE01DF91CF911F910F9168
:10043000FF90EF900895AF92BF92CF92DF92EF922C
:10044000FF920F931F93CF93DF936C017B018B017E
:10045000040F151FEB015E01AE18BF08C017D107CE
:1004600059F06991D601ED91FC910190F081E02D58
:10047000C6010995892B79F7C501DF91CF911F91AD
:100480000F91FF90EF90DF90CF90BF90AF900895C5
:1004900090E0FC01EE58FF4F2491FC01EF53FE4F1A
:1004A0003491FC01E355FE4FE491EE23C9F0222381
:1004B00039F0233001F1A8F4213019F1223029F16B
:1004C000F0E0EE0FFF1FED55FE4FA591B4918FB7F1
:1004D000F894EC91611126C030953E233C938FBF78
:1004E00008952730A9F02830C9F0243049F78091C9
:1004F00080008F7D03C0809180008F778093800083
:10050000DFCF84B58F7784BDDBCF84B58F7DFBCF04
:100510008091B0008F778093B000D2CF8091B000EF
:100520008F7DF9CF3E2BDACFCF93DF9390E0FC01A4
:10053000EF53FE4F249183559E4FFC0184918823F5
:10054000D1F090E0880F991FFC01E859FF4FA59169
:10055000B491FC01ED55FE4FC591D49161110EC0CF
:100560009FB7F8948C91E22FE0958E238C9328818D
:10057000E223E8839FBFDF91CF9108958FB7F8946E
:10058000EC91E22BEC938FBFF6CF9FB7F89440919C
:100590008D0150918E0160918F017091900186B50F
:1005A000A89B06C08F3F21F04F5F5F4F6F4F7F4F7B
:1005B0009FBF2227342F452F562F280F311D411D55
:1005C000511DA5E0B0E00E94DA0908958F929F9234
:1005D000AF92BF92CF92DF92EF92FF924B015C01FC
:1005E0000E94C5026B017C010E94C5026C197D0945
:1005F0008E099F09683E734081059105A8F321E0AB
:10060000821A9108A108B10888EEC80E83E0D81EAE
:10061000E11CF11C81149104A104B10429F7FF909D
:10062000EF90DF90CF90BF90AF909F908F90089504
:10063000FF920F931F93CF93DF93F82E04EF11E0F7
:10064000D0E0C0E080914A0390914B03DC01ED9132
:10065000FC910084F185E02D0995892BC9F08091EA
:100660004A0390914B03DC01ED91FC910284F385E8
:10067000E02D09958D3031F38A3021F4209711F364
:10068000FF2091F0FE01EE5CFD4F86872196DACFC8
:100690000150110949F061E070E080E090E00E94B3
:1006A000E602CE3FD10570F2FE01EE5CFD4F1686EC
:1006B0008C2FDF91CF911F910F91FF900895089596
:1006C00020919301309194012817390771F490918A
:1006D000910180919201981741F0E0919101F0E031
:1006E000E85BFE4F808190E008958FEF9FEF0895C3
:1006F0000895EF92FF920F931F93CF93DF93DC0146
:100700005C96ED90FC905D97E114F10479F481E042
:1007100090E013969C938E93129790E080E0DF9187
:10072000CF911F910F91FF90EF9008955196ED9109
:10073000FC91529750968C915097982F90950FB7A7
:100740005E962C915E97122F127021FD6095F894A1
:100750002081112319F1282B2083E7012197F1F73C
:1007600028E0462F50E0308160FF1AC0382B3083DC
:10077000E7012197F1F7BA0175956795215089F73F
:10078000112381F08081892380830FBF5C968D9136
:100790009C910197F1F781E090E0C1CF2923DCCF54
:1007A0003923E5CF9081892BEFCF209193013091B0
:1007B00094012817390771F48091920120919101D9
:1007C00090E0805C9F4F821B910960E470E00E9482
:1007D000F409089590E080E008952091930130910C
:1007E000940128173907B9F49091910180919201F1
:1007F000981789F0E0919101F0E0E85BFE4F80816D
:100800002091910130E02F5F3F4F2F7333272093CA
:10081000910190E008958FEF9FEF0895885E9E4FBD
:10082000DC018D919C91DC01ED91FC910680F781BA
:10083000E02D0994885E9E4FDC018D919C91DC0136
:10084000ED91FC910484F585E02D0994885E9E4F1E
:10085000DC018D919C91DC01ED91FC910284F3858A
:10086000E02D0994885E9E4FDC018D919C91DC0106
:10087000ED91FC910190F081E02D0994885E9E4FEE
:10088000DC018D919C91DC01ED91FC910084F1855E
:10089000E02D0994CF93DF9390E080E0EC01219666
:1008A0008897A8F482E392E00E943E04892B39F0F5
:1008B00082E392E00E942604D0E0C0E0F3CF61E042
:1008C00070E080E090E00E94E602CE01E7CFDF9189
:1008D000CF91089590E080E00895FB010190002001
:1008E000E9F73197AF01461B570BDC01ED91FC9105
:1008F0000280F381E02D09940F931F93CF93DF9330
:10090000EC010E94F7018C016AE371E0CE010E94C4
:100910006D04800F911FDF91CF911F910F9108956A
:100920000F931F93CF93DF938C01D0E0C0E061154C
:10093000710519F00E946D04EC016AE371E0C801D1
:100940000E946D048C0F9D1FDF91CF911F910F911D
:1009500008950F931F93CF93DF93EC018B010E94B7
:100960004A0462E871E085E991E00E94F701BE0166
:1009700085E991E00E947C04BE0180914A03909138
:100980004B030E947C0480E00E941803C82F6BE791
:1009900071E085E991E00E94F70160E472E085E989
:1009A00091E00E949004CC2341F0B80180E492E0F1
:1009B0000E94B70921E0892B09F020E0822FDF9106
:1009C000CF911F910F9108951F920F920FB60F9222
:1009D00011242F933F934F935F936F937F938F9344
:1009E0009F93AF93BF93EF93FF9385E991E00E94AC
:1009F0005401FF91EF91BF91AF919F918F917F91A2
:100A00006F915F914F913F912F910F900FBE0F907B
:100A10001F9018951F920F920FB60F9211242F93CB
:100A20008F939F93EF93FF93E091A501F091A6011F
:100A30008081E091AB01F091AC0182FD1BC09081FF
:100A40008091AE018F5F8F732091AF01821741F0CB
:100A5000E091AE01F0E0EB56FE4F958F8093AE0132
:100A6000FF91EF919F918F912F910F900FBE0F905B
:100A70001F9018958081F4CF1F920F920FB60F929E
:100A800011242F933F938F939F93AF93BF938091A4
:100A9000890190918A01A0918B01B0918C013091D4
:100AA00088012DE2230F2D3758F50196A11DB11DA8
:100AB000209388018093890190938A01A0938B01F0
:100AC000B0938C0180918D0190918E01A0918F0146
:100AD000B09190010196A11DB11D80938D0190935D
:100AE0008E01A0938F01B0939001BF91AF919F9120
:100AF0008F913F912F910F900FBE0F901F901895DF
:100B000020EB230F0296A11DB11DD2CF1F920F9291
:100B10000FB60F9211242F933F934F935F936F93D0
:100B20007F938F939F93AF93BF93EF93FF93E09146
:100B30000201F09103010995FF91EF91BF91AF91EF
:100B40009F918F917F916F915F914F913F912F91E5
:100B50000F900FBE0F901F9018951F920F920FB617
:100B60000F9211242F933F934F935F936F937F9333
:100B70008F939F93AF93BF93EF93FF93E091000107
:100B8000F09101010995FF91EF91BF91AF919F9174
:100B90008F917F916F915F914F913F912F910F9026
:100BA0000FBE0F901F9018951F920F920FB60F92C5
:100BB00011242F933F934F935F936F937F938F9362
:100BC0009F93AF93BF93EF93FF93E0919301F091C5
:100BD0009401309749F0A685B7858585968D91FF5C
:100BE00014C09C918923A1F4FF91EF91BF91AF9123
:100BF0009F918F917F916F915F914F913F912F9135
:100C00000F900FBE0F901F9018959C91892361F74C
:100C1000A389B4899C918589809589238C93868941
:100C200097890197F1F7608D718DA685B7855585F8
:100C300038E020E0CB010197F1F7822F90E0959505
:100C40008795282F4C91452309F02068315091F762
:100C5000868D81FD20958091920190E001968F73A1
:100C6000992730919101381799F0A0919201B0E045
:100C7000A85BBE4F2C9380939201828D938D019738
:100C8000F1F7A389B4898C919589892B8C93ACCF8A
:100C9000868D8160868FF1CF109298011092970116
:100CA00088EE93E0A0E0B0E08093990190939A01E0
:100CB000A0939B01B0939C0128E031E03093960112
:100CC0002093950125EC30E03093A2012093A101FF
:100CD00024EC30E03093A4012093A30120EC30E019
:100CE0003093A6012093A50121EC30E03093A801B8
:100CF0002093A70122EC30E03093AA012093A901B0
:100D000026EC30E03093AC012093AB011092AE01A1
:100D10001092AF011092B0011092B10110924F03E6
:100D200010924E038093500390935103A09352036B
:100D3000B09353038CE291E090934D0380934C0366
:100D40001092630310926203109265031092640381
:100D50001092670310926603109269031092680361
:100D600060916A036E7F6D7F60936A036695617020
:100D700081E0682782E00E94480261E082E00E94F0
:100D80009402E3ECF1E0E491E0935C03EFEAF1E03C
:100D9000E491F0E0EE0FFF1FED55FE4F8591949129
:100DA00090935E0380935D0360E083E00E94940271
:100DB00080916A0381FD04C061E083E00E944802E3
:100DC00083E080935803E4ECF1E0E491E09359036D
:100DD000E0EBF1E0E491F0E0EE0FFF1FE756FE4F8D
:100DE0008591949190935B0380935A0310923502FE
:100DF0001092340288EE93E0A0E0B0E080933602D7
:100E000090933702A0933802B09339028AE191E0BF
:100E1000909333028093320284E080933E0281E912
:100E200091E09093400380933F031092420310920D
:100E30004103109244031092430310924B0310920B
:100E40004A03109245038CE891E090934703809306
:100E5000460389E891E090934903809348030895FD
:100E6000789484B5826084BD84B5816084BD85B585
:100E7000826085BD85B5816085BD80916E00816091
:100E800080936E0010928100809181008260809337
:100E90008100809181008160809381008091800039
:100EA0008160809380008091B10084608093B10064
:100EB0008091B00081608093B00080917A0084605E
:100EC00080937A0080917A00826080937A0080918A
:100ED0007A008E7F80937A0080917A008068809378
:100EE0007A001092C10061E08DE00E94940261E0FE
:100EF0008DE00E94480210926703109266031092E0
:100F000065031092640310926303109262038EE6ED
:100F100092E090936903809368039091580396310F
:100F200008F047C025E231E0309363032093620369
:100F30002CE632E0309365032093640328EC31E023
:100F400030936703209366032091680084E0983013
:100F500048F031E09E3008F430E081E001C0880FB5
:100F60003A95EAF7822B809368002DE630E09830BE
:100F700050F02BE630E09E3030F02CE630E0963139
:100F800010F030E020E03093600320935F03292FBE
:100F900030E0983008F083C081E001C0880F9A9556
:100FA000EAF7809361038091680390916903019748
:100FB000F1F78091660390916703892B49F1E091E5
:100FC0009301F091940183E0EC34F80709F1309734
:100FD00039F0A389B4899C918589809589238C9364
:100FE00080916A038E7F80936A031092920110921F
:100FF00091018CE493E09093940180939301E091AC
:101000005F03F0916003808190916103892B80835D
:101010008CE493E090934B0380934A0361E08091CA
:101020003E020E94940261E080913E020E944802CA
:101030006AE070E080E090E00E94E60260E080916B
:101040003E020E94480264E670E080E090E00E9468
:10105000E60261E080913E020E9448026AE571E08A
:1010600085E991E00E947C04CEE0D0E080914A03C3
:1010700090914B03DC01ED91FC910084F185E02D12
:101080000995892BC9F080914A0390914B03DC01AB
:10109000ED91FC910284F385E02D0995E7CF9E3018
:1010A00040F42850310981E001C0880F2A95EAF701
:1010B00078CF2E503109F7CF6091480370914903E2
:1010C00087E591E00E94A90481115AC080914A03EA
:1010D00090914B03DC01ED91FC910084F185E02DB2
:1010E0000995892B61F080914A0390914B03DC01B3
:1010F000ED91FC910284F385E02D0995E7CF61E540
:1011000071E084E591E00E94A904811139C064EF87
:1011100071E080E090E00E94E602219709F0A6CFFE
:101120006FE171E085E991E00E947C0460914803E1
:10113000709149038CE191E00E94A90464E670E09B
:1011400080E090E00E94E6026091480370914903BC
:1011500089E191E00E94A90464E670E080E090E0FB
:101160000E94E602609148037091490386E191E094
:101170000E94A90464E670E080E090E00E94E6022C
:10118000609148037091490381E191E00E94A904B4
:1011900064E670E080E090E00E94E602609148031F
:1011A000709149038CE091E00E94A904882309F41E
:1011B000ADC0609148037091490382E091E00E94C4
:1011C000A90464E670E080E090E00E94E6020E94DC
:1011D0004A046BEF70E085E991E00E94F7016DE34E
:1011E00071E085E991E00E9490046DE371E08091E7
:1011F0004A0390914B030E94900481E00E941803DF
:1012000064EF70E085E991E00E94F70160E472E02C
:1012100085E991E00E94900469EE70E080E492E03C
:101220000E94C009892B09F448C083E080933F02E3
:1012300080913F02813071F56CEA70E085E991E0C0
:101240000E94F70161E471E085E991E00E94900459
:1012500061E471E080914A0390914B030E949004F5
:1012600081E00E94180365EA70E085E991E00E9440
:10127000F70160E472E085E991E00E9490046DE975
:1012800070E080E492E00E94C009892B19F086E0AA
:1012900080933F02609148037091490386E890E093
:1012A0000E94A904C0E0D0E02097F1F30E94E3017E
:1012B0008823D1F30E940000F7CF6EED70E080E448
:1012C00092E00E94C009892B11F082E0AFCF63ED5C
:1012D00070E080E492E00E94C009892B11F081E067
:1012E000A5CF63EC70E080E492E00E94C009892BF6
:1012F00011F084E09BCF63EB70E080E492E00E9409
:10130000C009892B09F494CF85E090CF61E08DE08E
:101310000E94480268EE73E080E090E00E94E602DE
:1013200060E08DE00E94480268EE73E080E090E0AB
:101330000E94E602EBCF8CE291E090934D03809304
:101340004C0380919301909194018C54934071F4DB
:10135000E0915F03F091600390818091610380953B
:101360008923808310929401109293010895FB01C8
:10137000DC018D91059080190110D9F3990B089526
:10138000FB0155915523A9F0BF01DC014D91451793
:101390004111E1F759F4CD010590002049F04D913C
:1013A00040154111C9F3FB014111EFCF81E090E0FD
:1013B000019708950E94E509A59F900DB49F900D97
:1013C000A49F800D911D11240895A29FB001B39F89
:1013D000C001A39F700D811D1124911DB29F700D3E
:1013E000811D1124911D089597FB072E16F400947A
:1013F00007D077FD09D00E94080A07FC05D03EF40B
:10140000909581959F4F0895709561957F4F0895B0
:10141000AA1BBB1B51E107C0AA1FBB1FA617B7071A
:1014200010F0A61BB70B881F991F5A95A9F7809536
:101430009095BC01CD010895EE0FFF1F0590F4912A
:10144000E02D099410E0CCEED0E004C0FE010E9433
:0E1450001C0A2196CD3ED107C9F7F894FFCFB4
:10145E005F035F030000000076011B021701C3014A
:10146E00480126013A010000000032041B026A0402
:10147E000E043E0426041A040000000079031B0229
:10148E006A047803D503ED0360030D0A0041544945
:08149E000041542B474D4D00A5
:00000001FF
